{
  "_format": "hh-sol-artifact-1",
  "contractName": "KuisionerWeb",
  "sourceName": "contracts/KuisionerWeb.sol",
  "abi": [
    {
      "inputs": [],
      "stateMutability": "nonpayable",
      "type": "constructor"
    },
    {
      "anonymous": false,
      "inputs": [
        {
          "indexed": false,
          "internalType": "string",
          "name": "name",
          "type": "string"
        },
        {
          "indexed": false,
          "internalType": "uint256",
          "name": "prize",
          "type": "uint256"
        }
      ],
      "name": "List",
      "type": "event"
    },
    {
      "inputs": [
        {
          "internalType": "uint256",
          "name": "",
          "type": "uint256"
        }
      ],
      "name": "items",
      "outputs": [
        {
          "internalType": "uint256",
          "name": "id",
          "type": "uint256"
        },
        {
          "internalType": "string",
          "name": "name",
          "type": "string"
        },
        {
          "internalType": "string",
          "name": "category",
          "type": "string"
        },
        {
          "internalType": "uint256",
          "name": "prize",
          "type": "uint256"
        }
      ],
      "stateMutability": "view",
      "type": "function"
    },
    {
      "inputs": [
        {
          "internalType": "uint256",
          "name": "_id",
          "type": "uint256"
        },
        {
          "internalType": "string",
          "name": "_name",
          "type": "string"
        },
        {
          "internalType": "string",
          "name": "_category",
          "type": "string"
        },
        {
          "internalType": "uint256",
          "name": "_prize",
          "type": "uint256"
        }
      ],
      "name": "list",
      "outputs": [],
      "stateMutability": "nonpayable",
      "type": "function"
    },
    {
      "inputs": [],
      "name": "owner",
      "outputs": [
        {
          "internalType": "address",
          "name": "",
          "type": "address"
        }
      ],
      "stateMutability": "view",
      "type": "function"
    }
  ],
  "bytecode": "0x6080604052348015600f57600080fd5b50336000806101000a81548173ffffffffffffffffffffffffffffffffffffffff021916908373ffffffffffffffffffffffffffffffffffffffff1602179055506109b08061005f6000396000f3fe608060405234801561001057600080fd5b50600436106100415760003560e01c80638da5cb5b14610046578063bfb231d214610064578063ca57032714610097575b600080fd5b61004e6100b3565b60405161005b9190610314565b60405180910390f35b61007e60048036038101906100799190610379565b6100d7565b60405161008e9493929190610445565b60405180910390f35b6100b160048036038101906100ac91906105cd565b610217565b005b60008054906101000a900473ffffffffffffffffffffffffffffffffffffffff1681565b60016020528060005260406000206000915090508060000154908060010180546101009061069b565b80601f016020809104026020016040519081016040528092919081815260200182805461012c9061069b565b80156101795780601f1061014e57610100808354040283529160200191610179565b820191906000526020600020905b81548152906001019060200180831161015c57829003601f168201915b50505050509080600201805461018e9061069b565b80601f01602080910402602001604051908101604052809291908181526020018280546101ba9061069b565b80156102075780601f106101dc57610100808354040283529160200191610207565b820191906000526020600020905b8154815290600101906020018083116101ea57829003601f168201915b5050505050908060030154905084565b60006040518060800160405280868152602001858152602001848152602001838152509050806001600087815260200190815260200160002060008201518160000155602082015181600101908161026f9190610878565b5060408201518160020190816102859190610878565b50606082015181600301559050507f6777458730c06ba2ecf56a9f5a54676fc11f8b7da73424b020dd4dc6630f5fc084836040516102c492919061094a565b60405180910390a15050505050565b600073ffffffffffffffffffffffffffffffffffffffff82169050919050565b60006102fe826102d3565b9050919050565b61030e816102f3565b82525050565b60006020820190506103296000830184610305565b92915050565b6000604051905090565b600080fd5b600080fd5b6000819050919050565b61035681610343565b811461036157600080fd5b50565b6000813590506103738161034d565b92915050565b60006020828403121561038f5761038e610339565b5b600061039d84828501610364565b91505092915050565b6103af81610343565b82525050565b600081519050919050565b600082825260208201905092915050565b60005b838110156103ef5780820151818401526020810190506103d4565b60008484015250505050565b6000601f19601f8301169050919050565b6000610417826103b5565b61042181856103c0565b93506104318185602086016103d1565b61043a816103fb565b840191505092915050565b600060808201905061045a60008301876103a6565b818103602083015261046c818661040c565b90508181036040830152610480818561040c565b905061048f60608301846103a6565b95945050505050565b600080fd5b600080fd5b7f4e487b7100000000000000000000000000000000000000000000000000000000600052604160045260246000fd5b6104da826103fb565b810181811067ffffffffffffffff821117156104f9576104f86104a2565b5b80604052505050565b600061050c61032f565b905061051882826104d1565b919050565b600067ffffffffffffffff821115610538576105376104a2565b5b610541826103fb565b9050602081019050919050565b82818337600083830152505050565b600061057061056b8461051d565b610502565b90508281526020810184848401111561058c5761058b61049d565b5b61059784828561054e565b509392505050565b600082601f8301126105b4576105b3610498565b5b81356105c484826020860161055d565b91505092915050565b600080600080608085870312156105e7576105e6610339565b5b60006105f587828801610364565b945050602085013567ffffffffffffffff8111156106165761061561033e565b5b6106228782880161059f565b935050604085013567ffffffffffffffff8111156106435761064261033e565b5b61064f8782880161059f565b925050606061066087828801610364565b91505092959194509250565b7f4e487b7100000000000000000000000000000000000000000000000000000000600052602260045260246000fd5b600060028204905060018216806106b357607f821691505b6020821081036106c6576106c561066c565b5b50919050565b60008190508160005260206000209050919050565b60006020601f8301049050919050565b600082821b905092915050565b60006008830261072e7fffffffffffffffffffffffffffffffffffffffffffffffffffffffffffffffff826106f1565b61073886836106f1565b95508019841693508086168417925050509392505050565b6000819050919050565b600061077561077061076b84610343565b610750565b610343565b9050919050565b6000819050919050565b61078f8361075a565b6107a361079b8261077c565b8484546106fe565b825550505050565b600090565b6107b86107ab565b6107c3818484610786565b505050565b5b818110156107e7576107dc6000826107b0565b6001810190506107c9565b5050565b601f82111561082c576107fd816106cc565b610806846106e1565b81016020851015610815578190505b610829610821856106e1565b8301826107c8565b50505b505050565b600082821c905092915050565b600061084f60001984600802610831565b1980831691505092915050565b6000610868838361083e565b9150826002028217905092915050565b610881826103b5565b67ffffffffffffffff81111561089a576108996104a2565b5b6108a4825461069b565b6108af8282856107eb565b600060209050601f8311600181146108e257600084156108d0578287015190505b6108da858261085c565b865550610942565b601f1984166108f0866106cc565b60005b82811015610918578489015182556001820191506020850194506020810190506108f3565b868310156109355784890151610931601f89168261083e565b8355505b6001600288020188555050505b505050505050565b60006040820190508181036000830152610964818561040c565b905061097360208301846103a6565b939250505056fea2646970667358221220c1fd08f8c82b3af7cdc69ee9606dfdba69e98cd9edfff65e2216e144f8798e5564736f6c634300081c0033",
  "linkReferences": {},
  "deployedLinkReferences": {}
}