{
  "_format": "hh-sol-artifact-1",
  "contractName": "MyContract",
  "sourceName": "contracts/MyContracts.sol",
  "abi": [
    {
      "inputs": [],
      "stateMutability": "nonpayable",
      "type": "constructor"
    },
    {
      "inputs": [
        {
          "internalType": "address",
          "name": "sender",
          "type": "address"
        },
        {
          "internalType": "uint256",
          "name": "tokenId",
          "type": "uint256"
        },
        {
          "internalType": "address",
          "name": "owner",
          "type": "address"
        }
      ],
      "name": "ERC721IncorrectOwner",
      "type": "error"
    },
    {
      "inputs": [
        {
          "internalType": "address",
          "name": "operator",
          "type": "address"
        },
        {
          "internalType": "uint256",
          "name": "tokenId",
          "type": "uint256"
        }
      ],
      "name": "ERC721InsufficientApproval",
      "type": "error"
    },
    {
      "inputs": [
        {
          "internalType": "address",
          "name": "approver",
          "type": "address"
        }
      ],
      "name": "ERC721InvalidApprover",
      "type": "error"
    },
    {
      "inputs": [
        {
          "internalType": "address",
          "name": "operator",
          "type": "address"
        }
      ],
      "name": "ERC721InvalidOperator",
      "type": "error"
    },
    {
      "inputs": [
        {
          "internalType": "address",
          "name": "owner",
          "type": "address"
        }
      ],
      "name": "ERC721InvalidOwner",
      "type": "error"
    },
    {
      "inputs": [
        {
          "internalType": "address",
          "name": "receiver",
          "type": "address"
        }
      ],
      "name": "ERC721InvalidReceiver",
      "type": "error"
    },
    {
      "inputs": [
        {
          "internalType": "address",
          "name": "sender",
          "type": "address"
        }
      ],
      "name": "ERC721InvalidSender",
      "type": "error"
    },
    {
      "inputs": [
        {
          "internalType": "uint256",
          "name": "tokenId",
          "type": "uint256"
        }
      ],
      "name": "ERC721NonexistentToken",
      "type": "error"
    },
    {
      "anonymous": false,
      "inputs": [
        {
          "indexed": true,
          "internalType": "address",
          "name": "owner",
          "type": "address"
        },
        {
          "indexed": true,
          "internalType": "address",
          "name": "approved",
          "type": "address"
        },
        {
          "indexed": true,
          "internalType": "uint256",
          "name": "tokenId",
          "type": "uint256"
        }
      ],
      "name": "Approval",
      "type": "event"
    },
    {
      "anonymous": false,
      "inputs": [
        {
          "indexed": true,
          "internalType": "address",
          "name": "owner",
          "type": "address"
        },
        {
          "indexed": true,
          "internalType": "address",
          "name": "operator",
          "type": "address"
        },
        {
          "indexed": false,
          "internalType": "bool",
          "name": "approved",
          "type": "bool"
        }
      ],
      "name": "ApprovalForAll",
      "type": "event"
    },
    {
      "anonymous": false,
      "inputs": [
        {
          "indexed": true,
          "internalType": "address",
          "name": "from",
          "type": "address"
        },
        {
          "indexed": true,
          "internalType": "address",
          "name": "to",
          "type": "address"
        },
        {
          "indexed": true,
          "internalType": "uint256",
          "name": "tokenId",
          "type": "uint256"
        }
      ],
      "name": "Transfer",
      "type": "event"
    },
    {
      "inputs": [
        {
          "internalType": "address",
          "name": "to",
          "type": "address"
        },
        {
          "internalType": "uint256",
          "name": "tokenId",
          "type": "uint256"
        }
      ],
      "name": "approve",
      "outputs": [],
      "stateMutability": "nonpayable",
      "type": "function"
    },
    {
      "inputs": [
        {
          "internalType": "address",
          "name": "owner",
          "type": "address"
        }
      ],
      "name": "balanceOf",
      "outputs": [
        {
          "internalType": "uint256",
          "name": "",
          "type": "uint256"
        }
      ],
      "stateMutability": "view",
      "type": "function"
    },
    {
      "inputs": [
        {
          "internalType": "uint256",
          "name": "tokenId",
          "type": "uint256"
        }
      ],
      "name": "getApproved",
      "outputs": [
        {
          "internalType": "address",
          "name": "",
          "type": "address"
        }
      ],
      "stateMutability": "view",
      "type": "function"
    },
    {
      "inputs": [
        {
          "internalType": "address",
          "name": "owner",
          "type": "address"
        },
        {
          "internalType": "address",
          "name": "operator",
          "type": "address"
        }
      ],
      "name": "isApprovedForAll",
      "outputs": [
        {
          "internalType": "bool",
          "name": "",
          "type": "bool"
        }
      ],
      "stateMutability": "view",
      "type": "function"
    },
    {
      "inputs": [
        {
          "internalType": "string",
          "name": "tokenURI",
          "type": "string"
        }
      ],
      "name": "mint",
      "outputs": [
        {
          "internalType": "uint256",
          "name": "",
          "type": "uint256"
        }
      ],
      "stateMutability": "nonpayable",
      "type": "function"
    },
    {
      "inputs": [],
      "name": "name",
      "outputs": [
        {
          "internalType": "string",
          "name": "",
          "type": "string"
        }
      ],
      "stateMutability": "view",
      "type": "function"
    },
    {
      "inputs": [
        {
          "internalType": "uint256",
          "name": "tokenId",
          "type": "uint256"
        }
      ],
      "name": "ownerOf",
      "outputs": [
        {
          "internalType": "address",
          "name": "",
          "type": "address"
        }
      ],
      "stateMutability": "view",
      "type": "function"
    },
    {
      "inputs": [
        {
          "internalType": "address",
          "name": "from",
          "type": "address"
        },
        {
          "internalType": "address",
          "name": "to",
          "type": "address"
        },
        {
          "internalType": "uint256",
          "name": "tokenId",
          "type": "uint256"
        }
      ],
      "name": "safeTransferFrom",
      "outputs": [],
      "stateMutability": "nonpayable",
      "type": "function"
    },
    {
      "inputs": [
        {
          "internalType": "address",
          "name": "from",
          "type": "address"
        },
        {
          "internalType": "address",
          "name": "to",
          "type": "address"
        },
        {
          "internalType": "uint256",
          "name": "tokenId",
          "type": "uint256"
        },
        {
          "internalType": "bytes",
          "name": "data",
          "type": "bytes"
        }
      ],
      "name": "safeTransferFrom",
      "outputs": [],
      "stateMutability": "nonpayable",
      "type": "function"
    },
    {
      "inputs": [
        {
          "internalType": "address",
          "name": "operator",
          "type": "address"
        },
        {
          "internalType": "bool",
          "name": "approved",
          "type": "bool"
        }
      ],
      "name": "setApprovalForAll",
      "outputs": [],
      "stateMutability": "nonpayable",
      "type": "function"
    },
    {
      "inputs": [
        {
          "internalType": "bytes4",
          "name": "interfaceId",
          "type": "bytes4"
        }
      ],
      "name": "supportsInterface",
      "outputs": [
        {
          "internalType": "bool",
          "name": "",
          "type": "bool"
        }
      ],
      "stateMutability": "view",
      "type": "function"
    },
    {
      "inputs": [],
      "name": "symbol",
      "outputs": [
        {
          "internalType": "string",
          "name": "",
          "type": "string"
        }
      ],
      "stateMutability": "view",
      "type": "function"
    },
    {
      "inputs": [
        {
          "internalType": "uint256",
          "name": "tokenId",
          "type": "uint256"
        }
      ],
      "name": "tokenURI",
      "outputs": [
        {
          "internalType": "string",
          "name": "",
          "type": "string"
        }
      ],
      "stateMutability": "view",
      "type": "function"
    },
    {
      "inputs": [
        {
          "internalType": "address",
          "name": "from",
          "type": "address"
        },
        {
          "internalType": "address",
          "name": "to",
          "type": "address"
        },
        {
          "internalType": "uint256",
          "name": "tokenId",
          "type": "uint256"
        }
      ],
      "name": "transferFrom",
      "outputs": [],
      "stateMutability": "nonpayable",
      "type": "function"
    }
  ],
  "bytecode": "0x608060405234801561001057600080fd5b506040518060400160405280600a81526020017f4d79436f6e7472616374000000000000000000000000000000000000000000008152506040518060400160405280600381526020017f4d43540000000000000000000000000000000000000000000000000000000000815250816000908161008c91906102fc565b50806001908161009c91906102fc565b50505060016006819055506103ce565b600081519050919050565b7f4e487b7100000000000000000000000000000000000000000000000000000000600052604160045260246000fd5b7f4e487b7100000000000000000000000000000000000000000000000000000000600052602260045260246000fd5b6000600282049050600182168061012d57607f821691505b6020821081036101405761013f6100e6565b5b50919050565b60008190508160005260206000209050919050565b60006020601f8301049050919050565b600082821b905092915050565b6000600883026101a87fffffffffffffffffffffffffffffffffffffffffffffffffffffffffffffffff8261016b565b6101b2868361016b565b95508019841693508086168417925050509392505050565b6000819050919050565b6000819050919050565b60006101f96101f46101ef846101ca565b6101d4565b6101ca565b9050919050565b6000819050919050565b610213836101de565b61022761021f82610200565b848454610178565b825550505050565b600090565b61023c61022f565b61024781848461020a565b505050565b5b8181101561026b57610260600082610234565b60018101905061024d565b5050565b601f8211156102b05761028181610146565b61028a8461015b565b81016020851015610299578190505b6102ad6102a58561015b565b83018261024c565b50505b505050565b600082821c905092915050565b60006102d3600019846008026102b5565b1980831691505092915050565b60006102ec83836102c2565b9150826002028217905092915050565b610305826100ac565b67ffffffffffffffff81111561031e5761031d6100b7565b5b6103288254610115565b61033382828561026f565b600060209050601f8311600181146103665760008415610354578287015190505b61035e85826102e0565b8655506103c6565b601f19841661037486610146565b60005b8281101561039c57848901518255600182019150602085019450602081019050610377565b868310156103b957848901516103b5601f8916826102c2565b8355505b6001600288020188555050505b505050505050565b611f66806103dd6000396000f3fe608060405234801561001057600080fd5b50600436106100ea5760003560e01c806370a082311161008c578063b88d4fde11610066578063b88d4fde1461025b578063c87b56dd14610277578063d85d3d27146102a7578063e985e9c5146102d7576100ea565b806370a08231146101f157806395d89b4114610221578063a22cb4651461023f576100ea565b8063095ea7b3116100c8578063095ea7b31461016d57806323b872dd1461018957806342842e0e146101a55780636352211e146101c1576100ea565b806301ffc9a7146100ef57806306fdde031461011f578063081812fc1461013d575b600080fd5b61010960048036038101906101049190611460565b610307565b60405161011691906114a8565b60405180910390f35b6101276103e9565b6040516101349190611553565b60405180910390f35b610157600480360381019061015291906115ab565b61047b565b6040516101649190611619565b60405180910390f35b61018760048036038101906101829190611660565b610497565b005b6101a3600480360381019061019e91906116a0565b6104ad565b005b6101bf60048036038101906101ba91906116a0565b6105af565b005b6101db60048036038101906101d691906115ab565b6105cf565b6040516101e89190611619565b60405180910390f35b61020b600480360381019061020691906116f3565b6105e1565b604051610218919061172f565b60405180910390f35b61022961069b565b6040516102369190611553565b60405180910390f35b61025960048036038101906102549190611776565b61072d565b005b610275600480360381019061027091906118eb565b610743565b005b610291600480360381019061028c91906115ab565b610768565b60405161029e9190611553565b60405180910390f35b6102c160048036038101906102bc9190611a0f565b61080d565b6040516102ce919061172f565b60405180910390f35b6102f160048036038101906102ec9190611a58565b61085d565b6040516102fe91906114a8565b60405180910390f35b60007f80ac58cd000000000000000000000000000000000000000000000000000000007bffffffffffffffffffffffffffffffffffffffffffffffffffffffff1916827bffffffffffffffffffffffffffffffffffffffffffffffffffffffff191614806103d257507f5b5e139f000000000000000000000000000000000000000000000000000000007bffffffffffffffffffffffffffffffffffffffffffffffffffffffff1916827bffffffffffffffffffffffffffffffffffffffffffffffffffffffff1916145b806103e257506103e1826108f1565b5b9050919050565b6060600080546103f890611ac7565b80601f016020809104026020016040519081016040528092919081815260200182805461042490611ac7565b80156104715780601f1061044657610100808354040283529160200191610471565b820191906000526020600020905b81548152906001019060200180831161045457829003601f168201915b5050505050905090565b60006104868261095b565b50610490826109e3565b9050919050565b6104a982826104a4610a20565b610a28565b5050565b600073ffffffffffffffffffffffffffffffffffffffff168273ffffffffffffffffffffffffffffffffffffffff160361051f5760006040517f64a0ae920000000000000000000000000000000000000000000000000000000081526004016105169190611619565b60405180910390fd5b6000610533838361052e610a20565b610a3a565b90508373ffffffffffffffffffffffffffffffffffffffff168173ffffffffffffffffffffffffffffffffffffffff16146105a9578382826040517f64283d7b0000000000000000000000000000000000000000000000000000000081526004016105a093929190611af8565b60405180910390fd5b50505050565b6105ca83838360405180602001604052806000815250610743565b505050565b60006105da8261095b565b9050919050565b60008073ffffffffffffffffffffffffffffffffffffffff168273ffffffffffffffffffffffffffffffffffffffff16036106545760006040517f89c62b6400000000000000000000000000000000000000000000000000000000815260040161064b9190611619565b60405180910390fd5b600360008373ffffffffffffffffffffffffffffffffffffffff1673ffffffffffffffffffffffffffffffffffffffff168152602001908152602001600020549050919050565b6060600180546106aa90611ac7565b80601f01602080910402602001604051908101604052809291908181526020018280546106d690611ac7565b80156107235780601f106106f857610100808354040283529160200191610723565b820191906000526020600020905b81548152906001019060200180831161070657829003601f168201915b5050505050905090565b61073f610738610a20565b8383610c54565b5050565b61074e8484846104ad565b610762610759610a20565b85858585610dc3565b50505050565b606060076000838152602001908152602001600020805461078890611ac7565b80601f01602080910402602001604051908101604052809291908181526020018280546107b490611ac7565b80156108015780601f106107d657610100808354040283529160200191610801565b820191906000526020600020905b8154815290600101906020018083116107e457829003601f168201915b50505050509050919050565b6000806006600081548092919061082390611b5e565b9190505590506108333382610f74565b826007600083815260200190815260200160002090816108539190611d52565b5080915050919050565b6000600560008473ffffffffffffffffffffffffffffffffffffffff1673ffffffffffffffffffffffffffffffffffffffff16815260200190815260200160002060008373ffffffffffffffffffffffffffffffffffffffff1673ffffffffffffffffffffffffffffffffffffffff16815260200190815260200160002060009054906101000a900460ff16905092915050565b60007f01ffc9a7000000000000000000000000000000000000000000000000000000007bffffffffffffffffffffffffffffffffffffffffffffffffffffffff1916827bffffffffffffffffffffffffffffffffffffffffffffffffffffffff1916149050919050565b6000806109678361106d565b9050600073ffffffffffffffffffffffffffffffffffffffff168173ffffffffffffffffffffffffffffffffffffffff16036109da57826040517f7e2732890000000000000000000000000000000000000000000000000000000081526004016109d1919061172f565b60405180910390fd5b80915050919050565b60006004600083815260200190815260200160002060009054906101000a900473ffffffffffffffffffffffffffffffffffffffff169050919050565b600033905090565b610a3583838360016110aa565b505050565b600080610a468461106d565b9050600073ffffffffffffffffffffffffffffffffffffffff168373ffffffffffffffffffffffffffffffffffffffff1614610a8857610a8781848661126f565b5b600073ffffffffffffffffffffffffffffffffffffffff168173ffffffffffffffffffffffffffffffffffffffff1614610b1957610aca6000856000806110aa565b6001600360008373ffffffffffffffffffffffffffffffffffffffff1673ffffffffffffffffffffffffffffffffffffffff168152602001908152602001600020600082825403925050819055505b600073ffffffffffffffffffffffffffffffffffffffff168573ffffffffffffffffffffffffffffffffffffffff1614610b9c576001600360008773ffffffffffffffffffffffffffffffffffffffff1673ffffffffffffffffffffffffffffffffffffffff168152602001908152602001600020600082825401925050819055505b846002600086815260200190815260200160002060006101000a81548173ffffffffffffffffffffffffffffffffffffffff021916908373ffffffffffffffffffffffffffffffffffffffff160217905550838573ffffffffffffffffffffffffffffffffffffffff168273ffffffffffffffffffffffffffffffffffffffff167fddf252ad1be2c89b69c2b068fc378daa952ba7f163c4a11628f55a4df523b3ef60405160405180910390a4809150509392505050565b600073ffffffffffffffffffffffffffffffffffffffff168273ffffffffffffffffffffffffffffffffffffffff1603610cc557816040517f5b08ba18000000000000000000000000000000000000000000000000000000008152600401610cbc9190611619565b60405180910390fd5b80600560008573ffffffffffffffffffffffffffffffffffffffff1673ffffffffffffffffffffffffffffffffffffffff16815260200190815260200160002060008473ffffffffffffffffffffffffffffffffffffffff1673ffffffffffffffffffffffffffffffffffffffff16815260200190815260200160002060006101000a81548160ff0219169083151502179055508173ffffffffffffffffffffffffffffffffffffffff168373ffffffffffffffffffffffffffffffffffffffff167f17307eab39ab6107e8899845ad3d59bd9653f200f220920489ca2b5937696c3183604051610db691906114a8565b60405180910390a3505050565b60008373ffffffffffffffffffffffffffffffffffffffff163b1115610f6d578273ffffffffffffffffffffffffffffffffffffffff1663150b7a02868685856040518563ffffffff1660e01b8152600401610e229493929190611e79565b6020604051808303816000875af1925050508015610e5e57506040513d601f19601f82011682018060405250810190610e5b9190611eda565b60015b610ee2573d8060008114610e8e576040519150601f19603f3d011682016040523d82523d6000602084013e610e93565b606091505b506000815103610eda57836040517f64a0ae92000000000000000000000000000000000000000000000000000000008152600401610ed19190611619565b60405180910390fd5b805181602001fd5b63150b7a0260e01b7bffffffffffffffffffffffffffffffffffffffffffffffffffffffff1916817bffffffffffffffffffffffffffffffffffffffffffffffffffffffff191614610f6b57836040517f64a0ae92000000000000000000000000000000000000000000000000000000008152600401610f629190611619565b60405180910390fd5b505b5050505050565b600073ffffffffffffffffffffffffffffffffffffffff168273ffffffffffffffffffffffffffffffffffffffff1603610fe65760006040517f64a0ae92000000000000000000000000000000000000000000000000000000008152600401610fdd9190611619565b60405180910390fd5b6000610ff483836000610a3a565b9050600073ffffffffffffffffffffffffffffffffffffffff168173ffffffffffffffffffffffffffffffffffffffff16146110685760006040517f73c6ac6e00000000000000000000000000000000000000000000000000000000815260040161105f9190611619565b60405180910390fd5b505050565b60006002600083815260200190815260200160002060009054906101000a900473ffffffffffffffffffffffffffffffffffffffff169050919050565b80806110e35750600073ffffffffffffffffffffffffffffffffffffffff168273ffffffffffffffffffffffffffffffffffffffff1614155b156112175760006110f38461095b565b9050600073ffffffffffffffffffffffffffffffffffffffff168373ffffffffffffffffffffffffffffffffffffffff161415801561115e57508273ffffffffffffffffffffffffffffffffffffffff168173ffffffffffffffffffffffffffffffffffffffff1614155b8015611171575061116f818461085d565b155b156111b357826040517fa9fbf51f0000000000000000000000000000000000000000000000000000000081526004016111aa9190611619565b60405180910390fd5b811561121557838573ffffffffffffffffffffffffffffffffffffffff168273ffffffffffffffffffffffffffffffffffffffff167f8c5be1e5ebec7d5bd14f71427d1e84f3dd0314c0f7b2291e5b200ac8c7c3b92560405160405180910390a45b505b836004600085815260200190815260200160002060006101000a81548173ffffffffffffffffffffffffffffffffffffffff021916908373ffffffffffffffffffffffffffffffffffffffff16021790555050505050565b61127a838383611333565b61132e57600073ffffffffffffffffffffffffffffffffffffffff168373ffffffffffffffffffffffffffffffffffffffff16036112ef57806040517f7e2732890000000000000000000000000000000000000000000000000000000081526004016112e6919061172f565b60405180910390fd5b81816040517f177e802f000000000000000000000000000000000000000000000000000000008152600401611325929190611f07565b60405180910390fd5b505050565b60008073ffffffffffffffffffffffffffffffffffffffff168373ffffffffffffffffffffffffffffffffffffffff16141580156113eb57508273ffffffffffffffffffffffffffffffffffffffff168473ffffffffffffffffffffffffffffffffffffffff1614806113ac57506113ab848461085d565b5b806113ea57508273ffffffffffffffffffffffffffffffffffffffff166113d2836109e3565b73ffffffffffffffffffffffffffffffffffffffff16145b5b90509392505050565b6000604051905090565b600080fd5b600080fd5b60007fffffffff0000000000000000000000000000000000000000000000000000000082169050919050565b61143d81611408565b811461144857600080fd5b50565b60008135905061145a81611434565b92915050565b600060208284031215611476576114756113fe565b5b60006114848482850161144b565b91505092915050565b60008115159050919050565b6114a28161148d565b82525050565b60006020820190506114bd6000830184611499565b92915050565b600081519050919050565b600082825260208201905092915050565b60005b838110156114fd5780820151818401526020810190506114e2565b60008484015250505050565b6000601f19601f8301169050919050565b6000611525826114c3565b61152f81856114ce565b935061153f8185602086016114df565b61154881611509565b840191505092915050565b6000602082019050818103600083015261156d818461151a565b905092915050565b6000819050919050565b61158881611575565b811461159357600080fd5b50565b6000813590506115a58161157f565b92915050565b6000602082840312156115c1576115c06113fe565b5b60006115cf84828501611596565b91505092915050565b600073ffffffffffffffffffffffffffffffffffffffff82169050919050565b6000611603826115d8565b9050919050565b611613816115f8565b82525050565b600060208201905061162e600083018461160a565b92915050565b61163d816115f8565b811461164857600080fd5b50565b60008135905061165a81611634565b92915050565b60008060408385031215611677576116766113fe565b5b60006116858582860161164b565b925050602061169685828601611596565b9150509250929050565b6000806000606084860312156116b9576116b86113fe565b5b60006116c78682870161164b565b93505060206116d88682870161164b565b92505060406116e986828701611596565b9150509250925092565b600060208284031215611709576117086113fe565b5b60006117178482850161164b565b91505092915050565b61172981611575565b82525050565b60006020820190506117446000830184611720565b92915050565b6117538161148d565b811461175e57600080fd5b50565b6000813590506117708161174a565b92915050565b6000806040838503121561178d5761178c6113fe565b5b600061179b8582860161164b565b92505060206117ac85828601611761565b9150509250929050565b600080fd5b600080fd5b7f4e487b7100000000000000000000000000000000000000000000000000000000600052604160045260246000fd5b6117f882611509565b810181811067ffffffffffffffff82111715611817576118166117c0565b5b80604052505050565b600061182a6113f4565b905061183682826117ef565b919050565b600067ffffffffffffffff821115611856576118556117c0565b5b61185f82611509565b9050602081019050919050565b82818337600083830152505050565b600061188e6118898461183b565b611820565b9050828152602081018484840111156118aa576118a96117bb565b5b6118b584828561186c565b509392505050565b600082601f8301126118d2576118d16117b6565b5b81356118e284826020860161187b565b91505092915050565b60008060008060808587031215611905576119046113fe565b5b60006119138782880161164b565b94505060206119248782880161164b565b935050604061193587828801611596565b925050606085013567ffffffffffffffff81111561195657611955611403565b5b611962878288016118bd565b91505092959194509250565b600067ffffffffffffffff821115611989576119886117c0565b5b61199282611509565b9050602081019050919050565b60006119b26119ad8461196e565b611820565b9050828152602081018484840111156119ce576119cd6117bb565b5b6119d984828561186c565b509392505050565b600082601f8301126119f6576119f56117b6565b5b8135611a0684826020860161199f565b91505092915050565b600060208284031215611a2557611a246113fe565b5b600082013567ffffffffffffffff811115611a4357611a42611403565b5b611a4f848285016119e1565b91505092915050565b60008060408385031215611a6f57611a6e6113fe565b5b6000611a7d8582860161164b565b9250506020611a8e8582860161164b565b9150509250929050565b7f4e487b7100000000000000000000000000000000000000000000000000000000600052602260045260246000fd5b60006002820490506001821680611adf57607f821691505b602082108103611af257611af1611a98565b5b50919050565b6000606082019050611b0d600083018661160a565b611b1a6020830185611720565b611b27604083018461160a565b949350505050565b7f4e487b7100000000000000000000000000000000000000000000000000000000600052601160045260246000fd5b6000611b6982611575565b91507fffffffffffffffffffffffffffffffffffffffffffffffffffffffffffffffff8203611b9b57611b9a611b2f565b5b600182019050919050565b60008190508160005260206000209050919050565b60006020601f8301049050919050565b600082821b905092915050565b600060088302611c087fffffffffffffffffffffffffffffffffffffffffffffffffffffffffffffffff82611bcb565b611c128683611bcb565b95508019841693508086168417925050509392505050565b6000819050919050565b6000611c4f611c4a611c4584611575565b611c2a565b611575565b9050919050565b6000819050919050565b611c6983611c34565b611c7d611c7582611c56565b848454611bd8565b825550505050565b600090565b611c92611c85565b611c9d818484611c60565b505050565b5b81811015611cc157611cb6600082611c8a565b600181019050611ca3565b5050565b601f821115611d0657611cd781611ba6565b611ce084611bbb565b81016020851015611cef578190505b611d03611cfb85611bbb565b830182611ca2565b50505b505050565b600082821c905092915050565b6000611d2960001984600802611d0b565b1980831691505092915050565b6000611d428383611d18565b9150826002028217905092915050565b611d5b826114c3565b67ffffffffffffffff811115611d7457611d736117c0565b5b611d7e8254611ac7565b611d89828285611cc5565b600060209050601f831160018114611dbc5760008415611daa578287015190505b611db48582611d36565b865550611e1c565b601f198416611dca86611ba6565b60005b82811015611df257848901518255600182019150602085019450602081019050611dcd565b86831015611e0f5784890151611e0b601f891682611d18565b8355505b6001600288020188555050505b505050505050565b600081519050919050565b600082825260208201905092915050565b6000611e4b82611e24565b611e558185611e2f565b9350611e658185602086016114df565b611e6e81611509565b840191505092915050565b6000608082019050611e8e600083018761160a565b611e9b602083018661160a565b611ea86040830185611720565b8181036060830152611eba8184611e40565b905095945050505050565b600081519050611ed481611434565b92915050565b600060208284031215611ef057611eef6113fe565b5b6000611efe84828501611ec5565b91505092915050565b6000604082019050611f1c600083018561160a565b611f296020830184611720565b939250505056fea2646970667358221220df0805504b2d48bad4ab95c85a9688bcdc5b25007e1f35262caa0e29039f2b9364736f6c634300081c0033",
  "linkReferences": {},
  "deployedLinkReferences": {}
}